:020000040800F2
:10000000401C00209D010008A5010008A701000870
:1000100000000000000000000000000000000000E0
:10002000000000000000000000000000A90100081E
:100030000000000000000000AB010008AD20000837
:10004000AF010008AF010008AF010008AF010008D0
:10005000AF010008AF010008AF010008AF010008C0
:10006000AF010008AF010008AF010008AF010008B0
:10007000AF010008AF010008AF010008AF010008A0
:10008000AF010008AF010008AF010008AF01000890
:10009000AF010008AF010008AF010008AF01000880
:1000A000AF010008AF010008AF010008AF01000870
:1000B000AF010008AF010008AF010008AF01000860
:1000C00000F002F800F03EF80CA030C80838241800
:1000D0002D18671EA246AB4654465D46AC4201D180
:1000E00000F030F87E460F3EB6460FCC0126334274
:1000F00000D0FB1A3343A246AB4618472C440000FD
:100100004C440000103A02D378C878C1FAD852079C
:1001100001D330C830C101D504680C6070470000BD
:100120000023002400250026103A01D378C1FBD813
:10013000520700D330C100D50B6070471FB51FBDFB
:1001400010B510BD00F0A7F91146FFF7F7FF03F057
:1001500099F900F0BFF903B4FFF7F2FF03BC00F018
:10016000C5F9000070B505460C46164602E00FCCF6
:100170000FC5103E102EFAD2082E02D303CC03C5B1
:10018000083E042E07D301CC01C5361F03E02178B9
:100190002970641C6D1C761EF9D270BD074880471B
:1001A00007480047FEE7FEE7FEE7FEE7FEE7FEE75B
:1001B00004480549054A064B70470000FD20000829
:1001C000C100000840160020401C002040180020FC
:1001D00040180020F8B5042A2CD3830712D00B78DE
:1001E000491C0370401C521E83070BD00B78491C1E
:1001F0000370401C521E830704D00B78491C037007
:10020000401C521E8B079B0F05D0C91ADF0020230C
:10021000DE1B08C90AE0FFF7A5FFF8BD1D4608C9A7
:10022000FD401C46B4402C4310C0121F042AF5D2D6
:10023000F308C91A521EF0D40B78491C0370401CF5
:10024000521EEAD40B78491C0370401C012AE4D4E6
:1002500009780170F8BD01E004C0091F0429FBD230
:100260008B0701D50280801CC90700D0027070473F
:1002700000290BD0C30702D00270401C491E02297E
:1002800004D3830702D50280801C891EE3E7002285
:10029000EEE70022DFE70000002203098B4273D360
:1002A000030A8B4258D3030B8B423CD3030C8B4283
:1002B00021D312E003460B437FD4002243088B4234
:1002C00074D303098B425FD3030A8B4244D3030BDD
:1002D0008B4228D3030C8B420DD30902FF2212BAA2
:1002E000030C8B4202D31212090265D0030B8B421E
:1002F00019D300E0090AC30B8B4201D3CB03C01A08
:100300005241830B8B4201D38B03C01A5241430BE2
:100310008B4201D34B03C01A5241030B8B4201D3D2
:100320000B03C01A5241C30A8B4201D3CB02C01A3D
:100330005241830A8B4201D38B02C01A5241430AB5
:100340008B4201D34B02C01A5241030A8B4201D3A4
:100350000B02C01A5241CDD2C3098B4201D3CB014B
:10036000C01A524183098B4201D38B01C01A5241FA
:1003700043098B4201D34B01C01A524103098B42FE
:1003800001D30B01C01A5241C3088B4201D3CB00E9
:10039000C01A524183088B4201D38B00C01A5241CC
:1003A00043088B4201D34B00C01A5241411A00D27C
:1003B00001465241104670475DE0CA0F00D04942E5
:1003C000031000D3404253409C46002203098B4255
:1003D0002DD3030A8B4212D38901FC2212BA030ADD
:1003E0008B420CD3890192118B4208D3890192115F
:1003F0008B4204D389013AD0921100E08909C309E4
:100400008B4201D3CB01C01A524183098B4201D3E5
:100410008B01C01A524143098B4201D34B01C01AD0
:10042000524103098B4201D30B01C01A5241C30848
:100430008B4201D3CB00C01A524183088B4201D3B7
:100440008B00C01A5241D9D243088B4201D34B00D2
:10045000C01A5241411A00D2014652411046634629
:100460005B1001D34042002B00D5494270476346E0
:100470005B1000D3404201B50449002802DC491C4E
:10048000084000E00846C046C04602BDFFFFFF7FAF
:10049000704770477047754600F024F8AE46050077
:1004A00069465346C008C000854618B020B5FFF71E
:1004B0007FFE60BCB64600260027C0C5C0C5C0C5CB
:1004C000C0C5C0C5C0C5C0C5C0C5403D490849007C
:1004D0008D46704710B50446C046C0462046FFF71B
:1004E0003AFE10BD00487047E8000020014918207E
:1004F000ABBEFEE7260002007047000080B5012079
:100500004103174800F032FD80BDC04610B50446D7
:1005100003F048FEA02003F071FE03F02BFEFF2C39
:1005200001D9002010BDE0B203F068FE03F022FE06
:1005300003F038FEA12003F061FE03F01BFE03F080
:10054000F7FD044603F044FE204610BD80B5024688
:10055000401E824101204103014800F00CFD80BD96
:1005600000040048B0B50C460546FFF7C7FF012858
:1005700018D003F017FEA02003F040FEFF2D00D39B
:10058000FF2503F0F7FDE8B203F038FE03F0F2FDBB
:10059000204603F033FE03F0EDFD03F019FE0320C7
:1005A00000F016FCB0BD10B52022825C521E012A5C
:1005B00007D8CA0709D18A070ED4490714D40020E6
:1005C00010BD01218A04243013E00268936880245E
:1005D0001C4394608A07F0D50122D20303689C680B
:1005E00014439C604907EAD50121CA050068083018
:1005F0000021036813430360084610BD2022825C7B
:10060000521E012A03D800681430002202E00122A1
:100610009104243003680B4303601046704770B5A3
:100620002024045D661E0568AC68012E05D86601AD
:100630000BD401214C05243002E001218C0424302C
:10064000026822430260084670BDA401A60F032E73
:1006500003D10121CC052430F2E701242046B0402B
:1006600018608B68002B03D04868C000184301E075
:10067000086840053301EB18CD6805430320C0012D
:100680001D5018180D694560097D012905D1011D0E
:1006900001252D020E682E430E60D1790906957949
:1006A0002D04691855792D024919157949196325C1
:1006B000AD005951D178090695782D0469185578FF
:1006C0002D024919127889183122D200995000213F
:1006D000B6E7F0B584B00246012015682023D35C4C
:1006E0005B1E012B28D840022818036801221343FF
:1006F00003604E691F24344002921346A340C4692C
:100700009C43C461DC430394CF69012F1AD0002FAE
:1007100033D1C768039C2740C760F700EC190194E8
:100720008C88CF683F04E41900940927BF01019C1D
:10073000009AE2510F4617E08104536A0B4353625B
:1007400004B0F0BDC4681C43C460F4002C190194CB
:100750008F880C6824043C1900940927BF01019C70
:10076000009AE2510F460C37F4002C193D888E6830
:100770003604AD199126B600A55145688C69002C48
:1007800001D01D4301E0039C2540456045690C698B
:10079000002C01D01D4301E0039C25404561096AFE
:1007A000012902D1C1691943C1610168029A9143CB
:1007B0000160002004B0F0BD10B5002810D0044640
:1007C00000F0BAFA204600F060FA0120C003216868
:1007D0000A6802430A60002060622021605410BD54
:1007E000012010BD10B5044600F026F80146152082
:1007F0000003014205D00E484268521C42600422A8
:1008000000E000224807C00F10434905890F01D0BE
:1008100002210843074A06498B58002B04D00028C0
:1008200002D00A7C09799847204600F030FA10BDC2
:100830004C010020F4070000406A7047F0B582B018
:100840002024055D6D1E012D09D8056800290AD0F8
:100850002D69AD070AD1243001214B0562E0012149
:100860008B0424305EE0ED68AD0758D00194009110
:100870000D0101684E191B210F01F15904240C4090
:100880009460F119F759002C02D17C0D146001E03D
:10089000FC085460096802240C40D4606D21890072
:1008A00074580F27274017617458240AE4B29461E2
:1008B0007158090C51613721C90072581A700268C9
:1008C00052195258120A5A70026852195258120C90
:1008D0009A70026852195158090ED9700168491965
:1008E0006F22920089581971016849198958090ABB
:1008F0005971016849198958090C99710168491998
:100900008958090ED97100680099002903D0103068
:100910000021019B06E00C300021019B02E0243005
:1009200001214B0502681A430260084602B0F0BD7F
:10093000F0B589B00446006846694168079185684A
:10094000C36801690491012779020291F9030191B9
:10095000390405917904039181690091F10702D16D
:100960000020089049E000210891E90702D1E8053C
:100970001DD433E08760A80708D468070ED4280781
:1009800011D42046069300F007FA03E020460693B0
:1009900000F004FA069BE80509D41FE0F80208906D
:1009A000E80504D41AE038030890E80516D53802A3
:1009B000216888600298054205D02046069300F021
:1009C000F5F9069B0AE0680501D5780303E02805E0
:1009D00000D4B8E0B80308990918089105980542B1
:1009E0000BD00146206881600398054200D19AE04F
:1009F00020461D4600F0E2F92B461022300708D5AC
:100A00001846104005D02068C26008980299084333
:100A1000089008257007069207D52B4005D020685E
:100A2000C560204600F042F9069AB00707D5206855
:100A3000C068800703D0204600F03EF9069A700691
:100A400008D50498104005D020680261B8020899C2
:100A500001430891B00608D50498284005D02068C5
:100A60000561204600F02EF9069AF00607D52068A9
:100A70000069800703D0204600F02AF9069A0398FF
:100A8000064207D00798104004D0206842602046F4
:100A900000F023F90598064207D00798284004D0B3
:100AA00020684560204600F091F90198064204D084
:100AB0000798400705D4089F56E0089F002F58D19B
:100AC0005DE0380231460140090A009A1140089F52
:100AD0000F439107394601D502213943029A164244
:100AE00000D00F4600994907394606D504213943FD
:100AF000720504D4310505D436E07205FAD50F46E7
:100B0000310531D57021009A0A402DD0103A1209D2
:100B1000052A25D87A4412795200974402191B1DE0
:100B20001F202F431CE0680306D4280307D4204667
:100B30001D4600F041F95FE70898019901E0089827
:100B4000059908430DE72046069300F02DF938E794
:100B5000069804E0202002E0402000E080200743C7
:100B6000206882698A438261206804214160002FE5
:100B700005D0606A384360622046FFF733FE09B053
:100B8000F0BDF0B581B000281BD004462027C05D21
:100B9000002802D1204600F079F826462036206849
:100BA000016802229143016000F0EEF905462068D9
:100BB0004168890708D500F0E7F9401B0B28F6D3F8
:100BC00013E0012001B0F0BD016801220092114341
:100BD000016000F0D9F9054620684168C9070BD1CA
:100BE00000F0D2F9401B0B28F6D301204104626AC1
:100BF0000A436262052145E0217E491E4A424A417C
:100C0000D101026880239A4351180160617E491E18
:100C10004A424A419101026840239A4351180160B7
:100C2000A17E491E4A424A4151010268BA43511805
:100C30000160E17E491E4A1E9141090102681023AC
:100C40009A4351180160217F491E4A424A41D1000E
:100C5000026808239A4351180160617F491E4A4285
:100C60004A419100026804239A4351180160271DEC
:100C7000AECF13432B433B43491E1943C1610020B0
:100C800060620099317001B0F0BD7047704720215B
:100C9000415C491E00220229114603D301218B0425
:100CA000426A1A434262084670470000464841695A
:100CB000491C41617047C04680B5002102F0A4FC88
:100CC00080BD000040484169491C41617047C046F1
:100CD00080B5012102F098FC80BD7047F0B581B06D
:100CE00004462020205C01281BD127462037022003
:100CF0003870206801680125A943016000F044F9BB
:100D0000064620684068C00711D000F03DF9801BFE
:100D10000B28F6D36804616A0143616205203870CC
:100D200007E00125E804616A0143616201E00025F2
:100D30006562284601B0F0BDF0B581B005462020BF
:100D4000285C022819D12F46203728680168012421
:100D50002143016000F018F9064628684168C90778
:100D600011D100F011F9801B0B28F6D36004696AD9
:100D700001436962052038700BE001242005696A8F
:100D80000143696205E001680222914301603C7001
:100D90000024204601B0F0BD704700000A480168F9
:100DA000491C01607047C046704700000648016852
:100DB000491C01607047C046704700000248016846
:100DC000491C01607047C0464C010020704700007C
:100DD000B0B5044600F0D8F80546601C02D088483B
:100DE0000078041900F0D0F8401BA042FAD3B0BD3F
:100DF000F0B58BB006900A68002A00D1A9E00C4635
:100E000055480699814201D0052000E00420009059
:100E10001720C00609180A20C141019101250026AA
:100E20000996049507940CE01943F960226810466E
:100E3000E840B61C0999091D09916D1C002800D1D4
:100E400087E0681E049F089087403A40EED00595E1
:100E500002926068102101431229069B10D11C20C8
:100E6000099908400F218140089AD408A4001C1950
:100E7000226A8A4307990969814011432162079CCC
:100E800003252846B0401A68824361680C460395E2
:100E90002C40B44014431C60C043122914D80122D2
:100EA0008A40304B1A420FD0069B9A680240079C3A
:100EB000E468B44014439C60CA06D20F089CA24068
:100EC0005C68BC4314435C60069BDA680240079C84
:100ED000A068B0401043D860C800059DA6D5204A40
:100EE0001068012108431060106808400A900C2126
:100EF000099801400198042800D3009888400F22E7
:100F00008A40089B03998B430A99174FD9599143FB
:100F10000143D951114F39686068C20302D5029B61
:100F2000194301E0029B994339607968820301D536
:100F3000194300E099437960B968C20201D51943A9
:100F400000E09943B960F968800200D56CE79943E5
:100F50006BE70BB0F0BDC046001000480004014034
:100F60001810024006000600080001400069084011
:100F7000411E88417047002A02D0182281507047D4
:100F80002822815070470000054800687047C0461D
:100F90001B48007802490A68101808607047C0466C
:100FA0003C16002010B50648016810220A43026072
:100FB0000024204600F006F800F028F8204610BD76
:100FC00000200240B0B504467D20C0000C490978DD
:100FD00003F072F901460B48006803F06DF900F068
:100FE000CFFE0125032C09D8002807D10025E843AE
:100FF00021462A4600F038F8034804602846B0BD70
:10100000E00000201C000020E400002081B0154812
:10101000426801210A43426042680A400092009AF5
:101020000A07836813438360836813400093009A20
:101030008A05036813430360036813400093009A12
:101040004A04036813430360036813400093009A43
:10105000890402680A430260006808400090009812
:1010600001B070471410024080B502F0FFF880BD57
:10107000F0B502685423D15A01242143D1521321DF
:101080004D0100214155D65A02273743D752401906
:1010900084600846F0BD704710B50C060CD54907B2
:1010A000090E40182830002A0DD003810121017358
:1010B000190C4181002010BD490140182521C900AB
:1010C0004018002AF1D1C38000210173002010BD17
:1010D00080B52722120183584A018018C26B184636
:1010E00001F081F980BD80B52722120183584A01A1
:1010F00080184F2292008258184601F0DCF980BD1A
:1011000010B507220A40090609D451014118FF23EE
:101110002A330024CC542523DB00C91805E05101F3
:10112000411829230124CC5428310A704522D200C9
:10113000835C012B01D1022010BD84180122227092
:10114000006801F0F9FD0020207010BDB0B50F223D
:101150000A4043689A4201D90120B0BD07220A40E3
:10116000090609D451014118FF232A330024CC5425
:101170002523DB00C91805E051014118292301246A
:10118000CC54283100248C700A704522D200835C34
:10119000012B01D10220B0BD851801222A70006800
:1011A00001F054FE2C702046B0BD00207047490766
:1011B000090E4018512189004058704770B5072426
:1011C0000C40090609D461014118FF252A35002683
:1011D0004E552525ED00491905E0610141182925E5
:1011E00001264E5528310A61CB700C704A78002ACE
:1011F00000D0CC81022B01D100220A714522D200FD
:10120000835C012B01D1022070BD84180122227061
:10121000006801F077FC0020207070BDB0B5072495
:101220000C40610141182525ED004C554919002459
:101230000D4614351CC54C70006801F05BFE20465D
:10124000B0BD70B5044607250D404068854201D900
:10125000012070BD080609D448012018FF212A3159
:10126000002242542521C900411805E068012118D7
:10127000292001220A5428310D700120887045224E
:10128000D200A35C012B01D1022070BDA6183070E2
:10129000206801F013FE002D05D123200001211844
:1012A000206801F0D1FD0020307070BDB0B507247A
:1012B0000C406101411828254C55283100240D4669
:1012C00014351CC501224A70006801F013FE204647
:1012D000B0BD0000F0B581B00446006801F092FF97
:1012E000000402D5204600F04FFD206801F08AFF7F
:1012F00040050CD520684421425A524B13404352BA
:10130000204600F02FF90021204600F050F9132567
:10131000206801F077FF400405D520684421425A37
:10132000494B134043526D01206801F06BFF80046C
:1013300005D520684421425A444B13404352671953
:10134000206801F05FFFC0041AD520684021425A8E
:1013500004239A434252425A08239A43425238780D
:10136000012804D1002139702046FFF794FE204661
:1013700000F004F920684421425A354B134043528F
:101380000125206801F03EFF00051BD528030090D1
:1013900020684021425A08231343435202464032F8
:1013A00093882E462B4D1D4095803546425A042386
:1013B0001343435201F026FF0099084202D1204610
:1013C00000F02AF9206801F01DFF00061FD52068F3
:1013D0004421425A80239A4342523978002903D04B
:1013E000204600F019F912E04030018804220A4337
:1013F0000280018808220A4302803D70808A8008AA
:101400003C210140796020462946FFF744FE2068D0
:1014100001F0F8FE800508D520684421425A0E4BA1
:1014200013404352204600F0BBF8206801F0EAFE6A
:10143000C00505D520684421425A084B1340435249
:1014400001B0F0BDFFFB0000FFBF0000FFDF0000A8
:10145000FFEF0000FFF70000FFFD0000FFFE0000AF
:10146000F0B589B0002860D004464520C00025189A
:101470006878002804D100202870204600F05AF82F
:10148000032008956870206801F0D4FC6168002989
:1014900014D061680020034602465B01E31828254A
:1014A0005A552833D5B2DD8101255D701861586128
:1014B0009861D870521CD3B29942EED8204624309D
:1014C0000790002911D00020034602465B01E31873
:1014D0002525ED005A555B19186158619861D8703F
:1014E0005870521CD3B29942F0D8A0680590E068B9
:1014F000069027461037E0CFE269236A20680095FE
:101500000196029703920493059A069B01F084FCCE
:10151000002507980570012008994870E0690128A6
:1015200004D12046FFF7A4FD00E00125284609B0BC
:10153000F0BD000081B000680849884201D001B0C8
:1015400070470120C00506490A6802430A6009681D
:1015500001400091009801B07047C046005C004017
:101560001C100240B0B50446272005016059012136
:1015700001F0A1F8605901F05CF8B0BD10B5044667
:101580008069002806D02C4801680622914301603A
:1015900000F090FD27200001205801F074F810BDE4
:1015A00080B527210901405801F077F880BD10B5BA
:1015B0004522D200835C012B01D1022010BD84188A
:1015C00002462432117001222270006801F032FEBE
:1015D0000020207010BD80B5272109014258232129
:1015E00009014118104601F073F880BDB0B50446FA
:1015F0004520C000215C012901D10220B0BD251881
:1016000001202870206801F0FFFB206801F0F0FD48
:1016100000202870B0BD000010B50446272000014E
:10162000205801F0A1F8A069002804D00248016800
:1016300006220A43026010BD10ED00E0F0B585B04F
:1016400004468078C007494B3BD001200290010737
:101650001A1F10680840039006D1106808431060F4
:10166000106808400490049800920191404E306840
:10167000C00559D5032528023C4B1968014012D0FA
:101680006268024091420ED00298000419681A68FC
:1016900002431A601A6882431A600846354A1040AD
:1016A0001860C80752D11868324908406168014380
:1016B00019600398002804D1009A106801998843A2
:1016C00010602068C10715D181071BD4810622D480
:1016D000810305D5196980229143A2690A431A61E1
:1016E000002540053FD518694021884361690143C1
:1016F000196138E0196903229143A2680A431A610B
:101700008107E3D5032109041A698A43E16811437B
:1017100019618106DCD519691022914322690A43B7
:101720001A618103D6D4DBE7029807023068384398
:101730003060FFF729FC0546306838429AD1FFF740
:1017400023FC401B6428F7D903250CE0FFF71CFCA1
:1017500006464F4F054B18688007A4D4FFF714FCCA
:10176000801BB842F6D9284605B0F0BD20100240D3
:1017700000700040FFFCFFFFF0B581B000284CD0A6
:101780000446424A1368012003408B4208D2136882
:101790000126B3430B431360126832408A4271D171
:1017A000009121688A070ED54A0705D50722120243
:1017B0004F4D2B6813432B604D4D2A68F0239A43FD
:1017C000A36813432B60C90729D130490868012653
:1017D0003040009A904205D90868B0430860086814
:1017E000C0074FD12078400707D507200002404AA4
:1017F00011688143E0680843106000F04FF83C49ED
:1018000009680906090F234A515CC840224908604B
:1018100000263046FFF7D6FB34E0012632E061684F
:10182000334A032909D0121F02290BD001290ED1F6
:1018300012689203064625D50DE0126BD2030646C8
:1018400020D508E01268920106461BD503E0126815
:101850009207064616D5264A10680326B043084369
:101860001060FFF791FB0746094D214800680C21E5
:101870000140606880008142A7D0FFF785FBC01B54
:10188000A842F2D9304601B0F0BDC0460020024067
:1018900088130000AE4400081C000020B0B51449B5
:1018A0000A681007830F13487B441B795B009F4431
:1018B000010203171048B0BD0323DB03896A0F241C
:1018C0000C400FA1095D94021A40240F10A52C5D55
:1018D0009A4207D001231B049A4204D0064802E032
:1018E0000648B0BD054802F0E7FC44432046B0BDC1
:1018F000041002400024F40000127A00006CDC02A4
:101900000102030405060708090A0B0C0D0E0F104F
:1019100002030405060708090A0B0C0D0E0F101030
:10192000F0B587B004460120002C00D121E20490DC
:101930002078C007FD4E059420D12078800774D50B
:1019400070680007800F0CD070680C2101400829D6
:1019500037D10320C003716801400120C0038142D8
:101960002FD130688007059A03D5D068012800D0B0
:1019700083E13068F8218843116953E071680C20D5
:101980000140042906D130688003D6D5606800285C
:10199000D3D172E171680140082907D10320C00347
:1019A00071680140012000048142ECD06068002889
:1019B00003901AD0052800D1FAE0012815D10120A2
:1019C000FBE03068059CE168002917D0012108433D
:1019D0003060FFF7D9FA0546306880071ED4FFF75C
:1019E000D3FA401B0228F7D9FCE001200104326839
:1019F0008A433260810430688843E1E001218843F2
:101A00003060FFF7C1FA0546306880070DD5FFF753
:101A1000BBFA411B03200229F6D9AAE13068F8215C
:101A200088432169C90001433160059C2078000783
:101A300025D4207840077FD5012003900107F06965
:101A40000840029006D1F0690843F061F06908404F
:101A5000069006980191C84F3868C00531D50598A1
:101A60008768002F03D0052F3DD0012F3FD0306A6B
:101A7000039988433062306A042188433AE0706AEF
:101A8000E16900290ED0012108437062FFF77CFA5A
:101A90000546706A8007CCD4FFF776FA401B02280F
:101AA000F7D99FE0012188437062FFF76DFA054680
:101AB000706A8007BDD5FFF767FA401B0228F7D987
:101AC00090E003980402386820433860FFF75CFA1E
:101AD000054638682042C2D1FFF756FA411B032061
:101AE0006429F6D945E1306A042101433162306A44
:101AF000039908433062FFF747FA05469F4C002FD1
:101B00000FD0306A80070FD4FFF73EFA401BA04287
:101B1000F7D967E0FFF738FA411B0320A14200D94B
:101B200027E1306A8007F5D402980028059C03D18C
:101B3000F06901998843F0612078C00669D5059A5B
:101B40005069411D16D001281DD1706B042101433D
:101B50007163706B012101437163FFF715FA05464C
:101B6000706B80074DD4FFF70FFA411B0320022949
:101B7000F6D9FEE0706B042188437063706BF82126
:101B80008843916942E0706B042101437163706B7B
:101B9000012188437063FFF7F7F90546706B8007F2
:101BA00037D5FFF7F1F9411B03200229F6D9E0E010
:101BB0000120810432680A4332600104306808431E
:101BC000306001204704FFF7DFF90546039800283D
:101BD0000BD03068384200D0AFE6FFF7D5F9401B94
:101BE0006428F6D9032007B0F0BD059C3068384260
:101BF00000D1A2E6FFF7C8F9411B03206429F5D9FB
:101C0000B7E0706BF821884305998969C9000143E1
:101C1000716305980078800623D40598446A002CE7
:101C20001CD070680C210140082929D1012C24D036
:101C30000320C20370680240F16A059CA36A9A42BD
:101C4000049D5DD10F221140236B994258D191041C
:101C50000840E16A8842284600D08AE0002007B0A8
:101C6000F0BD71680C2001400C2929D1706BC003B4
:101C7000D3D50598006A0128CFD0049807B0F0BDED
:101C80000120020631680492914331604706FFF754
:101C90007BF90546022C09D13068384248D0FFF75D
:101CA00073F9411B03200229F6D962E030683842FB
:101CB000D4D0FFF769F9411B03200229F6D958E077
:101CC00071680140082905D10320C00371680140F3
:101CD0008142CBD0706B0599096A002913D001218C
:101CE0000C0420437063FFF74FF90546706B2042E8
:101CF00093D1FFF749F9411B03200229F6D938E0B7
:101D0000284607B0F0BD01210C04A0437063FFF723
:101D10003BF90546706B204200D17EE7FFF734F9AE
:101D2000411B03200229F5D923E0C04600100240E0
:101D3000F06A0F218843059A116B0143F1627B2001
:101D4000C00371688143D06A0843916A014371609E
:101D50003068049908433060FFF716F9044630688C
:101D6000384200D07AE7FFF70FF9011B0320022960
:101D7000F5D907B0F0BDC0460070004088130000E0
:101D800080B500F07FF980BDF0B58BB004460068E7
:101D90004425415F002901D40BB0F0BD2521C900C5
:101DA0000591611803910021C9430991214624310D
:101DB00004910146443123221201A2180292012209
:101DC0000192D2030A92069508E0FFF76FFA2068A5
:101DD000425F01464431099B9A42DDDC0A880F27A5
:101DE00017402FD0B900465A0A9A164200D1FEE099
:101DF00041180A889F4B1A40802313430B807901B6
:101E0000651805996B184D218900695C00290796B2
:101E100008937FD01A789100435A5021415AD2003A
:101E2000954EF136334200D1A5E0944B1B189A1819
:101E30005118091F0E888E490E4000D1ABE01321C6
:101E40000901A1E00188D2062BD48A4A11400A9ADE
:101E5000114301805021405A8849081821684018D0
:101E6000049F3979C9004018001F00888049084044
:101E70006064E16B0818E063002620463146FFF7F6
:101E800027F938780028A2D0206C00289FD1049B25
:101E9000187880210143C8B221684C2288521E70F4
:101EA00095E70A054BD40A9A114290D00188714AED
:101EB000114080220A4302805025415B6F4A8918F5
:101EC00022688918039E3278D2008B5A68490B40E9
:101ED000F3610DD0716900290AD0F28801F095F9FB
:101EE000F06971690818706100212046FFF7FBF85E
:101EF000206862494118425B3369002B00D19EE0A3
:101F00003E2B00D9A2E05D08019E3340EB189B02F6
:101F1000069DA4E05021415A584A821851181A7857
:101F2000D2008E5A52490E4040D0972149006A5A39
:101F30004F2189006958334601F067F936E0502196
:101F4000415A4E4A891822688918039E3278D20075
:101F50008B5A47490B40F361F288029901F055F919
:101F600020680188434A114080220A4302802046AB
:101F7000FFF731FB2BE7414BC3189A18565A3C49DF
:101F80000E4008D0992149006A5A4F2189006958AA
:101F9000334601F03AF90899206809788900425AD5
:101FA000344B1A400A9BC0331343435251208000E4
:101FB0002958891929504F20800029588A192A50F8
:101FC000052080012B58002B04D02720C000285862
:101FD000B04205D9089801782046FFF784F804E05C
:101FE000089801782046FFF719F9069D079E3006EC
:101FF00000D4ECE67800400021680A5A1D4B1A40D4
:102000000A9B1A430A525020085A1C4A10184018BA
:10201000790163182821595CCA008018001F0088C4
:10202000134A10402833D8615A6912185A619B69C3
:102030002046002B00D0C8E6FFF74AF8C7E6535AFF
:102040000B4D2B400A9D2B43069D08E0DD065B09E6
:10205000002D069D00D15B1E9B020A9E3343535206
:102060000188054A1140064A51400180AFE6C0464A
:10207000FF0300000F0F00000F3F000006040000E8
:1020800080B00000B0B5401E010E01D00120B0BDEF
:10209000054D68600024E043032101F0E7F8AC60DF
:1020A000072028602046B0BD10E000E080B5FEF7B4
:1020B0006FFF80BD80B500F001F880BDB0B598B06D
:1020C000002514950124139420200B900BA8FFF7F2
:1020D00027FC0A950995032008900720079007A878
:1020E0002146FFF749FB0695034800900495684692
:1020F000FFF7A4FA18B0B0BD20000200704780B509
:10210000AD229200825852689047002080BD80B571
:10211000A7229200835C5B1E022B08D84988012904
:1021200007D1811800228A6000F03CF880BD00F0E1
:1021300013F880BD10B513460A460024214600F06E
:102140006FFA204610BD10B513460A4600242146FA
:1021500000F013FB204610BD10B50446802100F0AE
:10216000F1FA0021204600F0EDFA10BD10B5A521CE
:10217000890005224250002421462246234600F0D1
:102180004FFA204610BD10B513460A46A521890016
:1021900002244450C36103620024214600F0EDFA9A
:1021A000204610BD10B5A52189000422425000240C
:1021B00021462246234600F0E0FA204610BD0000EA
:1021C0001220088000487047C04400081220088090
:1021D0000048704720000020022008800048704717
:1021E000D4440008042008800048704734000020D0
:1021F00080B5C988012911D1A7218900415C4A1EF7
:10220000022A04D2002181600146083102E003293C
:1022100004D1011D0122FFF7B6FF80BDFFF79CFF2F
:1022200080BD0000F0B581B00D460446684600262A
:1022300006804888010A491E062963D82B2212010C
:10224000A218C0467944097949008F4403070E5B00
:102250005B1B2300207C11680A684CE05068217CDD
:10226000012700291DD0C16A1CE0C1B2052929D867
:102270007944097949008F44022D3033363910688A
:10228000426835E0207C00283CD15068416B6846AC
:10229000884732E0207C00280CD02046FFF75CFF06
:1022A00034E0816A68468847064602207070002F35
:1022B00042D02EE05068016B6846884706460720EA
:1022C00070701BE05068836B002B1BD06A46204661
:1022D000984712E0106882680AE01068C26807E058
:1022E0001068026904E01068426901E010688269C0
:1022F000002A07D0207C6946904706460127002F18
:1023000007D119E02046FFF727FF00263746002FA8
:1023100012D068460288002A0BD0E888002808D02E
:10232000824200D302466846028020463146FFF7CB
:102330002AFFE888002801D001B0F0BD2046FFF751
:1023400031FF01B0F0BD80B5A7229200835C5B1E17
:10235000022B08D8C988022905D18118896800296B
:1023600004D0032103E0FFF7F7FE80BD0121C16027
:1023700001460C310222FFF706FF80BD032804D876
:10238000C0000349C140C8B2704702207047C04630
:102390000002010210B5002811D0A7239B00C3182A
:1023A0009C69002C01D000249C61002900D0596157
:1023B00002700121197000F0D1F8002010BD022038
:1023C00010BD80B50B2292018058FEF7BFFEFFF7CB
:1023D000D5FF80BD80B50B2292018058FEF790FE9C
:1023E000FFF7CCFF80BDF0B581B00446A52080008A
:1023F000271800290CD0386A42690220002A05D02B
:102400003B7A032B02D120469047002001B0F0BD5B
:102410003868002816D0042814D0022816D1206A63
:10242000666AB0421CD9801B206283B220461146E6
:102430001A46FFF788FE002120460A460B4600F0A8
:10244000EFF803E08021204600F07CF9387B01287A
:1024500003D10020387301B0F0BD002001B0F0BD01
:10246000E56928463146FDF717FFB54212D300292A
:1024700010D1786885420DD20025204629462A468B
:10248000FFF761FE7D60204629462A462B4600F074
:10249000C7F8DBE7386AC168002904D0387A032816
:1024A00001D1204688478021204600F04BF9204684
:1024B000FFF75CFECAE770B50546A5208000281826
:1024C00000290CD0026A92690224002A05D0007A01
:1024D000032802D1284690470024204670BD016899
:1024E0000024052915D00329F7D10B2149016B18C8
:1024F0001E6859688E4213D9701A1860884200D33A
:10250000084683B2284611461A46FFF713FE2046B6
:1025100070BD04602846214600F014F9204670BDC5
:10252000016A0969002904D0007A032801D12846EC
:1025300088472846FFF736FE204670BD80B50B223F
:1025400092018058FEF731FEFFF718FF80BD80B57D
:102550000B2292018058FEF72AFE80BDF0B581B0B3
:1025600005460B2086011E48A85127210901455028
:1025700000248461C4610462022300930361062184
:10258000184A026041608360FEF76AFFA859182369
:1025900021462246FEF780FDA85980215823224675
:1025A000FEF77AFDA859012198232246FEF774FD13
:1025B000A8598121D8232246FEF76EFDA859232170
:1025C000CF00009922463B46FEF766FDA8594037EA
:1025D000822122463B46FEF75FFD204601B0F0BD5A
:1025E0000C0C0020005C00400B22920180584A062F
:1025F000120D8018090602D52A30007870479521FF
:10260000490040180078704710B514460B2292011B
:1026100080581A462346FEF7D1FDFFF7AFFE10BDE6
:1026200010B50B24A4010059FEF7F8FDFFF7A6FE34
:1026300010BDF0B581B004460025402629462A4643
:102640003346FFF7E1FF2B20C00001272750201859
:10265000C660802120462A463346FFF7D5FFA520D5
:1026600080002550201807726662A76105616560C9
:10267000416A002904D0006A426800212046904740
:10268000002001B0F0BDA7218900425C042A02D1DC
:102690004018417801700020704780B5A72189005B
:1026A000425C032A05D141188969C969002900D013
:1026B0008847002080BD01740020704780B50B2240
:1026C00092018058FEF773FFFFF758FE80BD0000AF
:1026D000F0B581B00446A5208600A7193D46143503
:1026E000284600F053F80120A0511548205A786080
:1026F000397D1F20084003280BD8C0467844007954
:1027000040008744010C11162046294600F0E4F8E9
:1027100013E080200140204600F014F80DE0204630
:10272000294600F0C0F908E02046294600F011F9DA
:1027300003E02046294600F0CFF8002001B0F0BDAC
:10274000AE02000080B50B2292018058FEF779FDA1
:10275000FFF714FE80BD80B50B2189014058FEF7BC
:1027600045FFFFF70BFE80BDA7218900425C0423D3
:102770004354401842700020704710B50B24A40148
:102780000059FEF793FDFFF7F9FD10BD0A780270BE
:102790004A7842708A78CB781B029A1842800A796C
:1027A0004B791B029A1882808A79C97909028918A3
:1027B000C1807047002904D0AD22920081500020D2
:1027C00070470220704770B50446888800280BD1F6
:1027D000C888002808D14D887F2D05D8A720800003
:1027E00026183078032803D12046FFF7B5FC70BDCA
:1027F0007F200540B57020462946FFF75FFF204641
:10280000FFF7D0FC002D02D00220307070BD0120F7
:10281000307070BD80B5AD2292008258002A05D07C
:1028200012689047411E8841400080BD022080BD53
:10283000B0B5044648881F4D2870C1B2022903D3A1
:102840002046FFF789FCB0BDA7208000225C20183D
:10285000032A0CD0022A1BD1002927D003220270A0
:1028600061602046FFF7D6FF02281FD1E8E7002964
:1028700016D06068012819D0C1B22046FFF73FFC8E
:10288000297861602046FFF7C5FF02280ED1D7E7FF
:102890002046FFF761FC29782046FFF730FCB0BDE9
:1028A0006160022202702046FFF729FC2046FFF7F4
:1028B00079FCB0BD4801002080B54988012905D1C7
:1028C000A921890001224250FFF76CFC80BD80B530
:1028D000FFF741FF002080BD80B50B7860221A40D1
:1028E0000AD0402A01D0202A17D1AD229200825866
:1028F00092689047002080BD4A78092A0DD8C046CA
:102900007A44127952009744040C081008142008E5
:10291000181CFFF718FD002080BDFFF71DFC0020EC
:1029200080BDFFF7F4FB002080BDFFF7C5FF00204E
:1029300080BDFFF748FF002080BDFFF759FC002055
:1029400080BDFFF775FF002080BDFFF76BFC002006
:1029500080BDB0B50A460446087860210140A72032
:102960008000201800290AD0402901D0202918D140
:10297000806983682046114698470020B0BD1179D0
:102980005378002B12D0012B22D0032B4ED100788C
:1029900003282FD0022849D180200843802845D021
:1029A0001FE02046FFF7D8FB0020B0BD00780328C9
:1029B0002ED002283AD180200843802836D17F20AB
:1029C000084014224243A31808064DD514334EE0A4
:1029D000007803282FD0022828D18020084380289F
:1029E00024D02046FFF7AEFE80212046FFF7AAFE46
:1029F0000020B0BD5088002825D1802008438028C1
:102A000021D0D08800281ED12046FFF79BFE1AE077
:102A10000F230B4080200A4614255D4363190240B2
:102A200016D12B25ED005B59002B14D12046FFF762
:102A300093FB0020B0BD50880028B5D1480602D0D5
:102A40002046FFF7BEFC2046FFF7ACFB0020B0BDE0
:102A50009B69002BEAD07F230B4014255D43651949
:102A6000002A0AD014350BE0552080001B180020E6
:102A7000186002222046194611E055229200AD1836
:102A80000843802801D1002005E02046FFF7ACFD77
:102A90000028F8D001202860022220462946FFF7AE
:102AA00072FB0020B0BDB0B50D4604460978602029
:102AB000084003D0402801D020280FD1A720800053
:102AC00020180178491E022903D8A9880906490E51
:102AD00009D02046FFF740FB0020B0BD2046FFF79D
:102AE0003BFB0020B0BD80698268204629469047A4
:102AF0000028F6D1E8880028F3D12046FFF752FBE2
:102B00000020B0BDF0B586B003460F78B8001E189F
:102B1000185A834D0540C8780328049008D800222D
:102B2000784400794000874401050B08012005E046
:102B3000012205E07B48401C01E0032040020543E0
:102B4000794C254335803088D84D28403843204380
:102B50003080087B002848D0039230880596734E59
:102B6000064073483018059A108050201C5A029471
:102B70000124A5025D19FF00EA190192E4430E89C0
:102B800026400093029B019AD652059E009A105A45
:102B90003A1DAA184B8923401352D54A1346F133E4
:102BA000308818404978002942D0C24900285E4C3C
:102BB000BE4D03D03088284008433080308840061E
:102BC00005D530882840234640330343338030887E
:102BD0002840084330803035308828400499012946
:102BE00049D021462031484046E05020185A0290F2
:102BF000FF004878002845D01446D819029A80185A
:102C0000C988012291439202815230884006464A87
:102C100005D5308828401146403101433180303598
:102C2000318829400498012820464ED1114374E090
:102C300000283D4B9D4C04D0308820409D490143E5
:102C400031803088400605D5308820401946403113
:102C500001433180308820401946403101433180A2
:102C600030881040944941403180303431882140CF
:102C70001943039851E020433080318811402143AB
:102C800003984AE00596042038430124A6029E19C1
:102C90000196503330180490C8880094A043029CD9
:102CA000049E305306203843019C27180869198870
:102CB000002803920CD03E2813D82B46009A0240DD
:102CC000400880188502059E16E02032514024E01D
:102CD0002B46C85B134A0240134D803D1543059EA9
:102CE0000AE0C2064009002A059E00D1401E2B467C
:102CF00080020D4D803D0543CD5331887C4802460E
:102D0000F132114204D0318819406A4A0A433280B4
:102D100032880240074951400398318006B0F0BD27
:102D20008F89FFFFFF030000808000000F0E00006E
:102D30008081000080B0FFFFB0B50A789200845A0D
:102D400080184B780A7B2F49002A21D0684A154603
:102D5000F1352C40002B27D0544B564D002C03D07E
:102D600004881C402C4304800488640603D504882E
:102D70001C400C43048004881C402C4304803033E6
:102D800004881C400B46403B23430380134631E03C
:102D9000002B24D0454A1346303364062AD50488D4
:102DA00014400C43048025E0404B002C04D00488E0
:102DB0001C40404D254305800488640603D50488E3
:102DC0001C400C43048004881C400C43048004888D
:102DD00014400A46403A2243028030330AE0444B12
:102DE0001A46F132144205D00288304C1440314A60
:102DF000A218028002881A40403911430180002045
:102E0000B0BDC046C08000005821425A0123DB03F8
:102E1000134343520020704710B540210122425213
:102E200000244452014640318C800C8200F0E0F9CD
:102E3000204610BD4021425A024B1340435200200D
:102E40007047C0467F40000000207047B0B50A7B45
:102E5000002A01D00020B0BD0A789300C25AC018E1
:102E60004B78002B10D05206104B114A05D5048820
:102E70001C401546203525430580C9780129E9D035
:102E80003033018819400DE0D5490B46F1331A4221
:102E900005D00288054B1340D44A9A180280028854
:102EA0000A40D049514001800020B0BD0F0F000002
:102EB000A080000080C0000080B0000010B54B78FA
:102EC000002B04D0094A002B04D1C54B03E0064A6D
:102ED000002BFAD0C44B09788900445A1C40544056
:102EE0004452002010BDC0468090FFFF9080FFFF3D
:102EF0000F3F0000F0B585B00D4604460F698869A4
:102F0000C11B00D20021A961B84200D807462B7B23
:102F10006978012924D104940126F403002B40D0C0
:102F200003942A789000049C205A400664D4012916
:102F300000D197E0002900D010E15020205AD100A4
:102F4000891C6118B2028918002F00D1EFE03A46BF
:102F50003E2F00D9F9E01640520892199202FCE087
:102F600001208202002B34D001295DD0002900D03D
:102F7000A6E05023E35AA618F3182E78F600B61CE4
:102F80000496002F03937FD03E2F029000D989E052
:102F90003B4603407E08F3189B02039E049883532C
:102FA0008DE0EA88696903963E46BBB2049F3846C5
:102FB00000F049F95020385A38182978C900891C7E
:102FC0004018039989024652B034874E23463C4646
:102FD000FBE05021615AA21851182A78D200921DA4
:102FE000002F2AD03E2F31D838407B081818800295
:102FF00050527B4E7B4BE8E001293CD0002900D0A9
:10300000B8E05020205AD100891D6118B2028918F9
:10301000002F00D192E03A463E2F00D9A1E01640A1
:10302000520892199202A4E05023E35AA618F3180A
:103030002E78F600B61C9F5342E0535A674E1E404E
:10304000C00330185052664E664BBEE0FE067B0948
:10305000002E00D15B1E9B02C00318435052604EED
:10306000604BB2E05020205AD100891C611808182A
:10307000B102475272E05020205AD100891D6118D8
:103080000818B102475275E0049EF65A0196534B58
:10309000019E3340C6039B19039E0192049A9353E9
:1030A000019A0DE0FB0601937B09019E002E00D1E1
:1030B0005B1E9B02C6031E43039B0498C6520298E4
:1030C000474E484B012913D000297ED15021615A27
:1030D000A21851182A78D200921D002F11D03E2F2D
:1030E00019D838407B0818183E4B800250526CE0CB
:1030F0005020205AA11808182978C900891D475264
:1031000063E01F46535A354E1E403B46C0033018FD
:10311000334E505259E0FE067B09002E00D15B1E53
:103120002F4E9B02C003184350522E4B4DE0425A83
:103130002A4B1340039A134343520FE0425A274B42
:103140001340039A1343435214E0D3065209002B51
:10315000039B00D1521E92021A4342522846083065
:103160000AE0D3065209002B039B00D1521E9202A3
:103170001A43425228460A301B4E69690288BBB284
:10318000204600F060F8039B1846B03069780129AA
:103190000FD0002918D129788900625A1C4633467D
:1031A000303B1340C0341C43049A5452049C0346E1
:1031B0000BE029788900625A3346303B13400B4AB2
:1031C0001A436252034600E0034628788000215AE1
:1031D000314059402152002005B0F0BDFF030000EE
:1031E0000F3F000080B000003F0F000080C00000D3
:1031F0004021425A024B1343435200207047C046BD
:1032000080BF00004421405A704710B58018012249
:10321000920280185A0808D004880C70240A4C7056
:10322000891C521E801C002AF6D1DA0701D00088C2
:10323000087010BD002901D0002070474C21802269
:1032400042520020704710B55B1C5B080DD08018FF
:103250000122920280180A784C782402A218028077
:10326000891C5B1E801C002BF5D110BD002805D4E5
:103270000322034693430C4A9A1806E00F220240A9
:10328000083A03239A43074BD2188007C00E8901DE
:10329000C9B28140FF2383401068984308431060FF
:1032A0007047C0461CED00E000E400E05722D20069
:1032B0008258002A07D014234B43C3180020D8613A
:1032C00051188877704702207047000070B5044697
:1032D0005720C00020580225002822D00E46204644
:1032E000FFF735F9022E0FD0012E1AD1524D2D3590
:1032F00081B2284600F034FC0121102320462A46E2
:10330000FFF78EF9002070BD4B4D3D3581B2284648
:1033100000F0D4FC0221402320462A46FFF780F922
:103320000025284670BDC046F0B581B0044641482E
:10333000407B00281CD03F4F1437002608E018308F
:1033400000210160FF1D761C3A48407B86420FD267
:103350003D7820462946FFF73DF8072028401421F4
:10336000414360182906EAD42B21C9004018E7E739
:103370005720C1000020605001B0F0BD0020704710
:103380000A21018000487047D84400082E2101809E
:10339000284870472E210180264870472E21018041
:1033A000244870470A2903D1322010800148704711
:1033B00000207047E4440008F0B581B004461D4881
:1033C000407B002821D01B4F1437002608E018301E
:1033D00001210160FF1D761C1648407B864214D2F5
:1033E000B878F97809020B187A783D782046294692
:1033F000FFF70AF9072028401421414360182906E5
:10340000E5D42B21C9004018E2E75720C0000A4D3F
:1034100025502A462D32012110232046FFF700F9BE
:103420003D350221402320462A46FFF7F9F80020C7
:1034300001B0F0BD740000209E0E0020B0B54A78A7
:10344000002A01D00020B0BD49880029FAD10C49DA
:103450001022FEF798FE01240025204621462A4628
:1034600000F012FB284621462A4600F00DFB822080
:1034700000F098FA812000F095FA0020B0BDC04617
:1034800016450008FDF78EFDFEF718FE00F0E0FE81
:1034900000242046FDF75AF80220FDF799FC01258B
:1034A0002846FDF733F80F49087000F0FFFE00F0E2
:1034B000F5FD00F089FA00F061FD00F01FFB042625
:1034C00028463146224600F0DFFA204631462246A1
:1034D00000F0DAFA00F0F6FD00F094FA00F024FBB8
:1034E000F8E7C04644090020C00704D0024801782C
:1034F00010220A4302707047280F0020B0B5744CA8
:10350000724D2859FD21C900695881420DD01421FE
:1035100041436818183000F08FFD002805D4285961
:10352000401C642800D100202851B0BDF0B591B0F6
:10353000002610960F960E960D960C9602AC28213A
:103540002046FCF7A6FE0127780620498A68024338
:103550008A608A68024001920198B8040A680243AE
:103560000A60096801400191042010900E96022023
:103570000D9003200F9000020C90019814480CA9A4
:10358000FDF736FC914D2846FDF716F9102011493C
:103590003A02AA83104A29606860AE60EE602E612C
:1035A0006E61AA612846FDF7ECFA099708960A971A
:1035B00006960B96079628462146FDF78AF8074996
:1035C0002846FDF71BF811B0F0BDC04614100240AC
:1035D000000400480064004000010001138F000057
:1035E00001493A4A50507047F40700007F21090111
:1035F000364A50507047C04680B57448FDF798F978
:10360000FFF77CFF80BDC04610B58CB000220B9246
:103610000A920992089207920692059204920392E6
:103620000292019200926A46131D05AAFDF706F95F
:10363000002801D00CB010BD0798002806D06846BD
:10364000417B80220A434273069800E0059800906F
:103650000898022804D16846417B40220A434273FD
:103660006C460998207300F0AFFC20827F20000197
:10367000164C2158002901D068468847E068401C54
:10368000E0600CB010BDC046F0B5002811D0FD219F
:10369000CA000E498C58631C642B00D100230C4DCA
:1036A0004D59AB4207D18868401C88600020C04358
:1036B000F0BD0020F0BD142565434C19183460C8D6
:1036C00060C4E0C8E0C48B500020F0BD4C01002075
:1036D000EC07000010B50624444310484460082A53
:1036E00000D3082292000EA41219121F1268426120
:1036F000102900D31021890011A28918091F096817
:103700000161042B00D3042399001DA28918091F0D
:103710000968C160FDF735FA10BDC04648000020B9
:103720000000000000001000000020000000300039
:103730000000400000005000000060000000700029
:103740000000000000000100000002000000030073
:103750000000040000000500000006000000070053
:10376000000008000000090000000A0000000B0033
:1037700000000C0000000D0000000E0000000F0013
:103780000000000000000001000000020000000333
:1037900010B50E4C002807D02046FDF79FFA0721F0
:1037A0002046FCF700FF10BD07212046FCF7FBFE7A
:1037B0002046FDF7C1FA10BD80B5411E8841C10702
:1037C00002488160FDF7DDF980BDC0464800002059
:1037D000F0B587B004460025069505950495039538
:1037E0000295DD480078002809D00026900608D40C
:1037F00002290BD200960F4602292BD28BE02E46CF
:1038000089E0042910D200960F4621E020786378E1
:103810001B021B185B0902930123034000938F1EB8
:10382000A41C022977D315E002A880234373E07813
:103830000006A3781B04181863781B02C0182378AD
:10384000C018C00802900120184000900F1F241DCE
:10385000042960D30F261640082E334600D30823D0
:1038600002A80373B8B2B04201D22E4653E0D0068C
:1038700008D402A8001D21461A46FCF7ABFCBF1B6A
:10388000A41904E002A8417B40220A434273009835
:103890000028019708D038042E463CD0207802A991
:1038A00088730198401E019000F08EFB02A90882E7
:1038B00000260321ED22304600F0E6F800F084FBFC
:1038C0000446164D164F02A8FFF7DEFE002815D558
:1038D000FFF792FE00F078FB2A7810211140001BC0
:1038E00080B2B84201D8002903D001231A432A70BC
:1038F000019EB8420FD80029E5D00CE000980028BE
:1039000008D002A8417B20220A43427300F000FB4A
:10391000019E00E0019EF0B207B0F0BD280F00202C
:103920008C5B0000F0B581B0144605465720C000FE
:10393000244A17580026002F31D0287800280DD0AF
:1039400001282CD16A780F2010403A18927F002A63
:1039500002D040003C5222E000202870A868A0421B
:103960001DDB68682246FCF735FC68780F210140B2
:1039700078180126867769780807C00E00223A5227
:1039800007200840142242430E488218D4616A6816
:10399000A3B2FEF7F2FE2E70E8680019E860304628
:1039A00001B0F0BD80B501460F2202405720C30090
:1039B0000448C3589A1800239377FEF7BFFD41428D
:1039C000484180BD4809002080B586B000200590A0
:1039D0000490039002900190012002908004084915
:1039E0000A6802430A6009680140009103200190BF
:1039F0000098414801A9FDF7FBF906B080BDC0461B
:103A000014100240F0B581B0002600F0D7FA009003
:103A1000304B35460DE00020F8805042504138725E
:103A2000397A284600F058F823460A366D1C1E2EB7
:103A300027D09F19F8880028F7D0B988009A121A61
:103A400092B28A42F1D31C469B5B5A1E022AE2D3F1
:103A5000DA1E022A12D2081801210843F880387AA7
:103A6000484038727888401E80B200998842D7D288
:103A700002210022284600F007F8D1E70020F88054
:103A8000CEE701B0F0BDC046F0B581B014460D469A
:103A90000A2646430F4F00F091FABD53B919CA8860
:103AA000002A03D18A1D01230343138000228A8048
:103AB000EA1E012A0BD80A1D032D01D0C82300E0FD
:103AC00032231380002C02D00019012404434C80BF
:103AD00001B0F0BD800E002080B50A46002803D05A
:103AE000012807D1012100E00221501E8241024835
:103AF000FDF741FA80BDC0460004004880B5694822
:103B00000078674908706A4800F07DF9FFF70EFDFC
:103B10000348FFF76BFD0348FFF762FD80BDC04619
:103B2000113F0008E934000880B500F04DFA5E4905
:103B3000097800290AD05D490A88821A92B2074B97
:103B40009A4203D30880F14800F044FAEF4800F0AD
:103B5000F7F8FFF751FD80BD1C0F00208D5B0000C2
:103B6000F0B581B0022901D201B0F0BD4178012940
:103B700026D0022909D00329F6D101780329F3D1EF
:103B80008078FFF719FE01B0F0BD0178491E0B29BE
:103B9000EAD8C0467944097949008F44060535259D
:103BA0000505050505056467DEE7C178414A117022
:103BB0008178414A1170801C00F0BEF901B0F0BD5F
:103BC0000178491E0B29CFD87944097949008F44DF
:103BD00006520519055505050505055DC4E7354976
:103BE0000978C170344952E080782D4908702D4C15
:103BF00020700020FCF7AAFC21780120FCF7B2FC21
:103C000001B0F0BD264942E08178CA4E31700220F1
:103C10000029014600D004210022FFF735FF30784B
:103C2000FFF7B6FD3078002806D000F0CDF91F4927
:103C30000880B64800F0CEF9307801240227002829
:103C4000214600D03946002528462A46FFF71CFFAA
:103C500030780028214600D0394620462A46FFF712
:103C600013FF01B0F0BD8078F14901E080780B4985
:103C7000087001B0F0BD102181700BE0FF210171CF
:103C8000C170817006490978417102E003490978E1
:103C90008170102100F01EFA01B0F0BD1E0F00204F
:103CA00070000020440900201C0F0020200F00207D
:103CB000360F00202C0F0020300F0020F0B583B00D
:103CC00002292CD34378002B29D0821C881E002483
:103CD000274601930294010403D12646002E1BD1EE
:103CE0001DE0451E541C127800265006304604D4B0
:103CF000A9B22046FFF76CFD019BA9B2421E92B209
:103D00008A4204D2291A89B26218012601E02846A3
:103D10002246029C002E02D07F1C9F42DBD303B0C0
:103D2000F0BD000010B51F4A835A01241C433E23F6
:103D30009C43035D5B1C0355835A5918815210BD87
:103D400070B50546174E00F03FF90446AA5B022AFB
:103D500014D8164E3088002500281ED0201A80B2B4
:103D600012281AD31048002529462A46FFF7DAFD03
:103D7000002812D000253580284670BD3F323F20F4
:103D8000824309482946FFF7CDFD002807D0284681
:103D900000F039F8054804800125284670BD002050
:103DA00070BDC0468203000038000020240F0020B0
:103DB000F0B583B03E2923D80D4604460720C30141
:103DC000E61870883F2101404022511AA94210D2C2
:103DD0003F30C0270740E019019040210293FCF7D3
:103DE00056FA019800F01BF8029B00203080B81CA6
:103DF000708070884119994202D8201803B0F0BD34
:103E0000002003B0F0BD10B5044600F008F807200C
:103E1000C0010021215220180221418010BD002143
:103E20004170022101707047F0B581B00446374DF2
:103E3000102628463146FFF7BBFF00281BD00D2176
:103E40006156227B082A00D30822002901DA2023A8
:103E50001A4389083140114301708A06226817D439
:103E60005301667BB606F60FF318437092B2D3087F
:103E70000322022619E02548FFF762FF00283DD003
:103E800022481021FFF794FF0028D8D101B0F0BDDF
:103E9000637B560BC67056098670D6009B06DB0FF7
:103EA0009B194370530D0522042683550723DB011C
:103EB000ED5A268A865480180127002D02D1350A32
:103EC00045700227114EF55A6D1CF552D619C519C9
:103ED000C80607D4227B211D2846FCF77BF9207BEE
:103EE00086192D18607B800602D5A07B2870761C71
:103EF000F1B20648FFF716FF01B0F0BD4D4801785A
:103F000002220A43027001B0F0BDC046360F002005
:103F100010B504460748007800280AD0607B800668
:103F200004D401200321ED22FFF7AEFD2046FFF768
:103F30007BFF10BD1C0F002010B584B002780F214C
:103F400011404B1C03A90B705206520F531C02AABE
:103F5000137040783F2303405B1C01AC2380800931
:103F6000401C6B46187001980398029820880978C5
:103F700012781B78FFF7AEFB04B010BD81B00C487F
:103F8000016802221143016000681040009000980F
:103F90000848404981620168074A0A400260016896
:103FA0000160016801220A43026001B07047C04607
:103FB0001C10024000040040FFFC000080B5FCF72C
:103FC000E3FF80B280BD00000148006880B2704706
:103FD0002404004070B504460521FFF7E9FE0028DF
:103FE00025D00546FFF7F0FFE8700126AE700421EA
:103FF000697042212970000A287105212046FFF7C7
:1040000091FE03212046FFF7D3FE00280FD0084978
:104010000978084D2A780A402A704670827040213B
:10402000017003212046FFF77DFE0020287070BD3F
:10403000340F0020280F002010B588B0002407940A
:104040000694059404940394029401940D2141561E
:104050000268002904D40F4B1A400292224604E061
:1040600007235B079A43039204220492027B069281
:10407000490902220A400592021D074802A901AB24
:10408000FCF7CDFA002802D0E04308B010BD01983B
:1040900008B010BDFF0700004800002010B5174C05
:1040A000064900222046FEF775F905492046FEF72D
:1040B00081FB2046FEF70BFC10BDC046000000202F
:1040C000A400002080B50248FDF704F980BDC04679
:1040D0000C0C002010B50C4602460848016B002964
:1040E00001D0002010BD046381212346FEF745FB6B
:1040F000002800D00024204610BDC04648090020FA
:1041000082B0694608800888421E0A8000280CD0C8
:104110002D2001900198411E01910028FAD1684696
:1041200001884A1E02800029F2D102B070470000C7
:10413000F0B583B00120800301900027019D0C4859
:10414000856001242046FFF7DBFF094908680290DB
:104150008D612046FFF7D4FF700002990904C90F52
:104160000E18781C072F0746E9D3F0B203B0F0BD54
:1041700010040048F0B581B00124E503334E3561E9
:104180002046FFF7BDFFA70337602046FFF7B8FFC3
:1041900037612046FFF7B4FF35602046FFF7B0FFD8
:1041A00001B0F0BDF0B581B00124A503274E356004
:1041B000E70337602046FFF7A3FF37612046FFF78C
:1041C0009FFF35612046FFF79BFF01B0F0BDC04661
:1041D000F0B581B00124A5031C4E3561E7033761BA
:1041E0002046FFF78DFF35602046FFF789FF3760D7
:1041F0002046FFF785FF01B0F0BDC046F0B583B0A3
:10420000044601200090800301900021009F019D41
:1042100012E0F90301603846FFF772FF3560384657
:10422000FFF76EFF35613846FFF76AFF0299481CB9
:1042300064000729014607D260B200280291034EAC
:104240003046E6DB1030E4E703B0F0BD1804004868
:1042500070B586B000200590049003900290019004
:104260000126B0040F490A6802430A600968014048
:104270000091049603961120029003208003019080
:104280000098094C01AD20462946FCF7B1FD029685
:104290007003019020462946FCF7AAFDFFF798FF1E
:1042A00006B070BD141002400004004801490873B4
:1042B0007047C0462000002043088B421AD30022DA
:1042C00003098B4279D3030A8B425ED3030B8B42E3
:1042D00042D3030C8B4227D30902FF2212BA030CEC
:1042E0008B4202D31212090203D0030B8B4233D349
:1042F0001AE0D3E0411A8041401C704703460B434B
:1043000071D443088B42F5D3002203098B4254D366
:10431000030A8B4239D3030B8B421DD3030C8B4210
:1043200002D394466EE0090AC30B8B4201D3CB0340
:10433000C01A5241830B8B4201D38B03C01A5241E6
:10434000430B8B4201D34B03C01A5241030B8B42E8
:1043500001D30B03C01A5241C30A8B4201D3CB02D3
:10436000C01A5241830A8B4201D38B02C01A5241B8
:10437000430A8B4201D34B02C01A5241030A8B42BB
:1043800001D30B02C01A5241CDD2C3098B4201D3D3
:10439000CB01C01A524183098B4201D38B01C01A51
:1043A000524143098B4201D34B01C01A52410309C8
:1043B0008B4201D30B01C01A5241C3088B4201D377
:1043C000CB00C01A524183088B4201D38B00C01A24
:1043D000524143088B4201D34B00C01A5241411A4B
:1043E000524110007047CA0F00D04942031000D359
:1043F0004042534000229C4603098B422DD3030ABE
:104400008B4212D38901FC2212BA030A8B420CD3CD
:10441000890192118B4208D3890192118B4204D3F6
:10442000890137D0921100E08909C3098B4201D379
:10443000CB01C01A524183098B4201D38B01C01AB0
:10444000524143098B4201D34B01C01A5241030927
:104450008B4201D30B01C01A5241C3088B4201D3D6
:10446000CB00C01A524183088B4201D38B00C01A83
:104470005241D9D243088B4201D34B00C01A52415A
:10448000411A00D201465241104663465B1000D3E8
:104490004042704763465B1000D3404201B50021A3
:1044A000004201D0C9430846C046C04602BD0000D4
:1044B00000000000000001020304060708090000D4
:1044C00012035000430041004E002D0055005300E0
:1044D00042000000FE0300000A0600010000004048
:1044E0000100000032035000450041004B002D0048
:1044F000530079007300740065006D0020005400C3
:104500006500630068006E0069006B0020004700D2
:104510006D00620048000000080400080700040263
:10452000E0070100000000004845000800000020EE
:10453000E80000000401000830460008E800002000
:10454000581B000020010008CD210008E5210008CB
:10455000D9210008D921000800000000C12100086D
:104560000000000000127A0012010001000000406B
:10457000720C0C00FF540A0400010000040309043B
:1045800000820000BA12002080030000000000003A
:104590000064004000000000000000000000000077
:1045A000000000000000000000000000000000000B
:1045B0000000000000000000F000000009022E00D2
:1045C00001010080640904000004000000000705E8
:1045D0008102100000070501021000000705820299
:1045E000400000070502024000000000B933000847
:1045F000293300083D340008000000007D33000826
:10460000AD320008CD3200080000000000000000BC
:1046100000000000953300088D3300089D3300082A
:1046200081330008A53300080100000004000000E9
:04000005080000C12E
:00000001FF
